{
  "_format": "hh-sol-artifact-1",
  "contractName": "MultiChainStakingMaster",
  "sourceName": "contracts/quantumPortal/poc/example/MultiChainStaking.sol",
  "abi": [
    {
      "anonymous": false,
      "inputs": [
        {
          "indexed": true,
          "internalType": "address",
          "name": "previousOwner",
          "type": "address"
        },
        {
          "indexed": true,
          "internalType": "address",
          "name": "newOwner",
          "type": "address"
        }
      ],
      "name": "OwnershipTransferred",
      "type": "event"
    },
    {
      "inputs": [],
      "name": "CHAIN_ID",
      "outputs": [
        {
          "internalType": "uint256",
          "name": "",
          "type": "uint256"
        }
      ],
      "stateMutability": "view",
      "type": "function"
    },
    {
      "inputs": [
        {
          "internalType": "uint256",
          "name": "amount",
          "type": "uint256"
        }
      ],
      "name": "addRewards",
      "outputs": [],
      "stateMutability": "nonpayable",
      "type": "function"
    },
    {
      "inputs": [
        {
          "internalType": "uint256",
          "name": "",
          "type": "uint256"
        }
      ],
      "name": "baseTokens",
      "outputs": [
        {
          "internalType": "address",
          "name": "",
          "type": "address"
        }
      ],
      "stateMutability": "view",
      "type": "function"
    },
    {
      "inputs": [
        {
          "internalType": "uint256",
          "name": "fee",
          "type": "uint256"
        },
        {
          "internalType": "uint256",
          "name": "chainId",
          "type": "uint256"
        }
      ],
      "name": "closePosition",
      "outputs": [],
      "stateMutability": "nonpayable",
      "type": "function"
    },
    {
      "inputs": [],
      "name": "closeStakePeriod",
      "outputs": [],
      "stateMutability": "nonpayable",
      "type": "function"
    },
    {
      "inputs": [],
      "name": "distributeRewards",
      "outputs": [
        {
          "internalType": "bool",
          "name": "",
          "type": "bool"
        }
      ],
      "stateMutability": "view",
      "type": "function"
    },
    {
      "inputs": [],
      "name": "enableRewardDistribution",
      "outputs": [],
      "stateMutability": "nonpayable",
      "type": "function"
    },
    {
      "inputs": [
        {
          "internalType": "uint256[]",
          "name": "remoteChainIds",
          "type": "uint256[]"
        },
        {
          "internalType": "address[]",
          "name": "stakingContracts",
          "type": "address[]"
        },
        {
          "internalType": "address[]",
          "name": "_baseTokens",
          "type": "address[]"
        }
      ],
      "name": "init",
      "outputs": [],
      "stateMutability": "nonpayable",
      "type": "function"
    },
    {
      "inputs": [],
      "name": "owner",
      "outputs": [
        {
          "internalType": "address",
          "name": "",
          "type": "address"
        }
      ],
      "stateMutability": "view",
      "type": "function"
    },
    {
      "inputs": [],
      "name": "portal",
      "outputs": [
        {
          "internalType": "contract IQuantumPortalPoc",
          "name": "",
          "type": "address"
        }
      ],
      "stateMutability": "view",
      "type": "function"
    },
    {
      "inputs": [
        {
          "internalType": "uint256",
          "name": "chainId",
          "type": "uint256"
        }
      ],
      "name": "remoteAddress",
      "outputs": [
        {
          "internalType": "address",
          "name": "rv",
          "type": "address"
        }
      ],
      "stateMutability": "view",
      "type": "function"
    },
    {
      "inputs": [
        {
          "internalType": "uint256",
          "name": "",
          "type": "uint256"
        }
      ],
      "name": "remotes",
      "outputs": [
        {
          "internalType": "address",
          "name": "",
          "type": "address"
        }
      ],
      "stateMutability": "view",
      "type": "function"
    },
    {
      "inputs": [],
      "name": "renounceOwnership",
      "outputs": [],
      "stateMutability": "nonpayable",
      "type": "function"
    },
    {
      "inputs": [
        {
          "internalType": "uint256",
          "name": "remoteChainId",
          "type": "uint256"
        },
        {
          "internalType": "address",
          "name": "addr",
          "type": "address"
        }
      ],
      "name": "setRemote",
      "outputs": [],
      "stateMutability": "nonpayable",
      "type": "function"
    },
    {
      "inputs": [
        {
          "internalType": "address",
          "name": "_rewardToken",
          "type": "address"
        }
      ],
      "name": "setRewardToken",
      "outputs": [],
      "stateMutability": "nonpayable",
      "type": "function"
    },
    {
      "inputs": [
        {
          "internalType": "uint256",
          "name": "amount",
          "type": "uint256"
        }
      ],
      "name": "stake",
      "outputs": [],
      "stateMutability": "nonpayable",
      "type": "function"
    },
    {
      "inputs": [],
      "name": "stakeClosed",
      "outputs": [
        {
          "internalType": "bool",
          "name": "",
          "type": "bool"
        }
      ],
      "stateMutability": "view",
      "type": "function"
    },
    {
      "inputs": [],
      "name": "stakeRemote",
      "outputs": [],
      "stateMutability": "nonpayable",
      "type": "function"
    },
    {
      "inputs": [
        {
          "internalType": "uint256",
          "name": "",
          "type": "uint256"
        },
        {
          "internalType": "address",
          "name": "",
          "type": "address"
        }
      ],
      "name": "stakes",
      "outputs": [
        {
          "internalType": "uint256",
          "name": "",
          "type": "uint256"
        }
      ],
      "stateMutability": "view",
      "type": "function"
    },
    {
      "inputs": [],
      "name": "totalRewards",
      "outputs": [
        {
          "internalType": "uint256",
          "name": "",
          "type": "uint256"
        }
      ],
      "stateMutability": "view",
      "type": "function"
    },
    {
      "inputs": [],
      "name": "totalStakes",
      "outputs": [
        {
          "internalType": "uint256",
          "name": "",
          "type": "uint256"
        }
      ],
      "stateMutability": "view",
      "type": "function"
    },
    {
      "inputs": [
        {
          "internalType": "address",
          "name": "newOwner",
          "type": "address"
        }
      ],
      "name": "transferOwnership",
      "outputs": [],
      "stateMutability": "nonpayable",
      "type": "function"
    }
  ],
  "bytecode": "0x60806040523480156200001157600080fd5b506200001d3362000031565b600180556200002b62000081565b62000270565b600080546001600160a01b038381166001600160a01b0319831681178455604051919092169283917f8be0079c531659141344cd1fd0a4f28419497f9722a3daafe3b4186f6b6457e09190a35050565b600080336001600160a01b0316638eb36e3d6040518163ffffffff1660e01b8152600401600060405180830381600087803b158015620000c057600080fd5b505af1158015620000d5573d6000803e3d6000fd5b505050506040513d6000823e601f3d908101601f19168201604052620000ff919081019062000184565b8060200190518101906200011491906200014a565b600380546001600160a01b0319166001600160a01b03841617905592509050811562000141578162000143565b465b6002555050565b600080604083850312156200015d578182fd5b82516001600160a01b038116811462000174578283fd5b6020939093015192949293505050565b6000602080838503121562000197578182fd5b82516001600160401b0380821115620001ae578384fd5b818501915085601f830112620001c2578384fd5b815181811115620001d757620001d76200025a565b604051601f8201601f19908116603f011681019083821181831017156200020257620002026200025a565b8160405282815288868487010111156200021a578687fd5b8693505b828410156200023d57848401860151818501870152928501926200021e565b828411156200024e57868684830101525b98975050505050505050565b634e487b7160e01b600052604160045260246000fd5b611bd680620002806000396000f3fe608060405234801561001057600080fd5b50600436106101425760003560e01c806377f1be60116100b8578063a9a3bba41161007c578063a9a3bba4146102a2578063b14c13fb146102cd578063beceed39146102e0578063bf9befb1146102f3578063cb3eb01c146102fc578063f2fde38b1461030457610142565b806377f1be601461025a57806385e1f4d0146102625780638aee81271461026b5780638da5cb5b1461027e578063a694fc3a1461028f57610142565b806343fe56ff1161010a57806343fe56ff146101d45780634ff83493146101f157806353e417d0146102045780636425666b1461022d5780636f4a2cd014610240578063715018a61461025257610142565b80630e15561a1461014757806311043795146101635780632d6ce61d146101785780633183e7301461018b578063328123a214610193575b600080fd5b61015060085481565b6040519081526020015b60405180910390f35b610176610171366004611777565b610317565b005b6101766101863660046119ac565b610495565b610176610511565b6101bc6101a136600461190b565b6005602052600090815260409020546001600160a01b031681565b6040516001600160a01b03909116815260200161015a565b600a546101e19060ff1681565b604051901515815260200161015a565b6101766101ff36600461193b565b610751565b6101bc61021236600461190b565b6004602052600090815260409020546001600160a01b031681565b6003546101bc906001600160a01b031681565b600a546101e190610100900460ff1681565b6101766107a9565b6101766107df565b61015060025481565b61017661027936600461175b565b61081a565b6000546001600160a01b03166101bc565b61017661029d36600461190b565b610866565b6101506102b036600461193b565b600660209081526000928352604080842090915290825290205481565b6101bc6102db36600461190b565b610933565b6101766102ee36600461190b565b61095f565b61015060095481565b610176610a8b565b61017661031236600461175b565b610ac4565b6000546001600160a01b0316331461034a5760405162461bcd60e51b815260040161034190611a64565b60405180910390fd5b60005b8581101561048c5784848281811061037557634e487b7160e01b600052603260045260246000fd5b905060200201602081019061038a919061175b565b600460008989858181106103ae57634e487b7160e01b600052603260045260246000fd5b90506020020135815260200190815260200160002060006101000a8154816001600160a01b0302191690836001600160a01b0316021790555082828281811061040757634e487b7160e01b600052603260045260246000fd5b905060200201602081019061041c919061175b565b6005600089898581811061044057634e487b7160e01b600052603260045260246000fd5b90506020020135815260200190815260200160002060006101000a8154816001600160a01b0302191690836001600160a01b03160217905550808061048490611b44565b91505061034d565b50505050505050565b600a54610100900460ff166104ec5760405162461bcd60e51b815260206004820152601f60248201527f4e6f7420726561647920746f20646973747269627574652072657761726473006044820152606401610341565b600254811415610503576104fe610b5f565b61050d565b61050d8282610cc5565b5050565b6000806000600360009054906101000a90046001600160a01b03166001600160a01b031663d737d0c76040518163ffffffff1660e01b815260040160606040518083038186803b15801561056457600080fd5b505afa158015610578573d6000803e3d6000fd5b505050506040513d601f19601f8201168201806040525081019061059c919061196a565b60008381526004602052604090205492955090935091506001600160a01b038084169116146105fb5760405162461bcd60e51b815260206004820152600b60248201526a139bdd08185b1b1bddd95960aa1b6044820152606401610341565b60035460408051633ecb494b60e21b815290516000926001600160a01b03169163fb2d252c9160048083019286929190829003018186803b15801561063f57600080fd5b505afa158015610653573d6000803e3d6000fd5b505050506040513d6000823e601f3d908101601f1916820160405261067b919081019061182d565b60409081015181518083018352600c81526b2922a6a7aa229029aa2aa32360a11b6020808301919091526000888152600482528481205460808501516005909352949020549294506106db9391926001600160a01b039283169216610e64565b60008481526005602052604090205460808201516001600160a01b0390811691161461073c5760405162461bcd60e51b815260206004820152601060248201526f2ab732bc3832b1ba32b2103a37b5b2b760811b6044820152606401610341565b61074b84838360a00151610ead565b50505050565b6000546001600160a01b0316331461077b5760405162461bcd60e51b815260040161034190611a64565b60009182526004602052604090912080546001600160a01b0319166001600160a01b03909216919091179055565b6000546001600160a01b031633146107d35760405162461bcd60e51b815260040161034190611a64565b6107dd6000610f58565b565b6000546001600160a01b031633146108095760405162461bcd60e51b815260040161034190611a64565b600a805461ff001916610100179055565b6000546001600160a01b031633146108445760405162461bcd60e51b815260040161034190611a64565b600780546001600160a01b0319166001600160a01b0392909216919091179055565b600260015414156108b95760405162461bcd60e51b815260206004820152601f60248201527f5265656e7472616e637947756172643a207265656e7472616e742063616c6c006044820152606401610341565b60026001819055546000908152600560205260409020546108e5906001600160a01b0316333084610fa8565b90508061091f5760405162461bcd60e51b81526020600482015260086024820152674e6f207374616b6560c01b6044820152606401610341565b61092c6002543383610ead565b5060018055565b6000818152600460205260409020546001600160a01b031680156109575780610959565b305b92915050565b600260015414156109b25760405162461bcd60e51b815260206004820152601f60248201527f5265656e7472616e637947756172643a207265656e7472616e742063616c6c006044820152606401610341565b6002600155600a54610100900460ff1615610a195760405162461bcd60e51b815260206004820152602160248201527f416c72656164792064697374726962757465642f28696e6729207265776172646044820152607360f81b6064820152608401610341565b600754610a31906001600160a01b0316333084610fa8565b905080610a6d5760405162461bcd60e51b815260206004820152600a6024820152694e6f207265776172647360b01b6044820152606401610341565b8060086000828254610a7f9190611aca565b90915550506001805550565b6000546001600160a01b03163314610ab55760405162461bcd60e51b815260040161034190611a64565b600a805460ff19166001179055565b6000546001600160a01b03163314610aee5760405162461bcd60e51b815260040161034190611a64565b6001600160a01b038116610b535760405162461bcd60e51b815260206004820152602660248201527f4f776e61626c653a206e6577206f776e657220697320746865207a65726f206160448201526564647265737360d01b6064820152608401610341565b610b5c81610f58565b50565b600254600090815260066020908152604080832033845290915281205490610b8682611138565b600280546000908152600660209081526040808320338085529083528184208490559354835260059091529081902054905163a9059cbb60e01b81526004810192909252602482018590529192506001600160a01b039091169063a9059cbb90604401602060405180830381600087803b158015610c0357600080fd5b505af1158015610c17573d6000803e3d6000fd5b505050506040513d601f19601f82011682018060405250810190610c3b919061180d565b5060075460405163a9059cbb60e01b8152336004820152602481018390526001600160a01b039091169063a9059cbb90604401602060405180830381600087803b158015610c8857600080fd5b505af1158015610c9c573d6000803e3d6000fd5b505050506040513d601f19601f82011682018060405250810190610cc0919061180d565b505050565b610d036040518060400160405280601781526020017f434c4f53494e4720504f534954494f4e2052454d4f544500000000000000000081525061114e565b600081815260066020908152604080832033845290915281205490610d2782611138565b600084815260066020908152604080832033808552925280832092909255600754915163a9059cbb60e01b81526004810191909152602481018390529192506001600160a01b03169063a9059cbb90604401602060405180830381600087803b158015610d9357600080fd5b505af1158015610da7573d6000803e3d6000fd5b505050506040513d601f19601f82011682018060405250810190610dcb919061180d565b506003546000848152600560205260409081902054905163bf98961960e01b81526004810187905267ffffffffffffffff861660248201523360448201526001600160a01b0391821660648201526084810185905291169063bf9896199060a401600060405180830381600087803b158015610e4657600080fd5b505af1158015610e5a573d6000803e3d6000fd5b5050505050505050565b61074b84848484604051602401610e7e9493929190611a28565b60408051601f198184030181529190526020810180516001600160e01b03166376c7947b60e11b17905261118d565b600a5460ff16158015610ec85750600a54610100900460ff16155b610f035760405162461bcd60e51b815260206004820152600c60248201526b14dd185ad94818db1bdcd95960a21b6044820152606401610341565b60008381526006602090815260408083206001600160a01b038616845290915281208054839290610f35908490611aca565b925050819055508060096000828254610f4e9190611aca565b9091555050505050565b600080546001600160a01b038381166001600160a01b0319831681178455604051919092169283917f8be0079c531659141344cd1fd0a4f28419497f9722a3daafe3b4186f6b6457e09190a35050565b6040516370a0823160e01b81526001600160a01b03838116600483015260009182918716906370a082319060240160206040518083038186803b158015610fee57600080fd5b505afa158015611002573d6000803e3d6000fd5b505050506040513d601f19601f820116820180604052508101906110269190611923565b905061103d6001600160a01b0387168686866111ae565b6040516370a0823160e01b81526001600160a01b038581166004830152600091908816906370a082319060240160206040518083038186803b15801561108257600080fd5b505afa158015611096573d6000803e3d6000fd5b505050506040513d601f19601f820116820180604052508101906110ba9190611923565b90506110c68282611b01565b92508383111561112e5760405162461bcd60e51b815260206004820152602d60248201527f53413a2061637475616c20616d6f756e74206c6172676572207468616e20747260448201526c185b9cd9995c88185b5bdd5b9d609a1b6064820152608401610341565b5050949350505050565b600061095982600854600954611208565b919050565b610b5c816040516024016111629190611a15565b60408051601f198184030181529190526020810180516001600160e01b031663104c13eb60e21b1790525b80516a636f6e736f6c652e6c6f67602083016000808483855afa5050505050565b604080516001600160a01b0385811660248301528416604482015260648082018490528251808303909101815260849091019091526020810180516001600160e01b03166323b872dd60e01b17905261074b90859061138f565b600080806000198587098587029250828110838203039150508060001415611242576000841161123757600080fd5b508290049050611388565b80841161124e57600080fd5b60008486880980840393811190920391905060008561126f81600019611b01565b61127a906001611aca565b1695869004959384900493600081900304600101905061129a8184611ae2565b9093179260006112ab876003611ae2565b60021890506112ba8188611ae2565b6112c5906002611b01565b6112cf9082611ae2565b90506112db8188611ae2565b6112e6906002611b01565b6112f09082611ae2565b90506112fc8188611ae2565b611307906002611b01565b6113119082611ae2565b905061131d8188611ae2565b611328906002611b01565b6113329082611ae2565b905061133e8188611ae2565b611349906002611b01565b6113539082611ae2565b905061135f8188611ae2565b61136a906002611b01565b6113749082611ae2565b90506113808186611ae2565b955050505050505b9392505050565b60006113e4826040518060400160405280602081526020017f5361666545524332303a206c6f772d6c6576656c2063616c6c206661696c6564815250856001600160a01b03166114619092919063ffffffff16565b805190915015610cc05780806020019051810190611402919061180d565b610cc05760405162461bcd60e51b815260206004820152602a60248201527f5361666545524332303a204552433230206f7065726174696f6e20646964206e6044820152691bdd081cdd58d8d9595960b21b6064820152608401610341565b60606114708484600085611478565b949350505050565b6060824710156114d95760405162461bcd60e51b815260206004820152602660248201527f416464726573733a20696e73756666696369656e742062616c616e636520666f6044820152651c8818d85b1b60d21b6064820152608401610341565b843b6115275760405162461bcd60e51b815260206004820152601d60248201527f416464726573733a2063616c6c20746f206e6f6e2d636f6e74726163740000006044820152606401610341565b600080866001600160a01b0316858760405161154391906119f9565b60006040518083038185875af1925050503d8060008114611580576040519150601f19603f3d011682016040523d82523d6000602084013e611585565b606091505b50915091506115958282866115a0565b979650505050505050565b606083156115af575081611388565b8251156115bf5782518084602001fd5b8160405162461bcd60e51b81526004016103419190611a15565b805161114981611b8b565b60008083601f8401126115f5578081fd5b50813567ffffffffffffffff81111561160c578182fd5b602083019150836020808302850101111561162657600080fd5b9250929050565b600082601f83011261163d578081fd5b815167ffffffffffffffff81111561165757611657611b75565b61166a601f8201601f1916602001611a99565b81815284602083860101111561167e578283fd5b611470826020830160208701611b18565b60006101008083850312156116a2578182fd5b6116ab81611a99565b9150506116b782611743565b81526116c5602083016115d9565b60208201526116d6604083016115d9565b60408201526116e7606083016115d9565b60608201526116f8608083016115d9565b608082015260a082015160a082015260c082015167ffffffffffffffff81111561172157600080fd5b61172d8482850161162d565b60c08301525060e082015160e082015292915050565b805167ffffffffffffffff8116811461114957600080fd5b60006020828403121561176c578081fd5b813561138881611b8b565b6000806000806000806060878903121561178f578182fd5b863567ffffffffffffffff808211156117a6578384fd5b6117b28a838b016115e4565b909850965060208901359150808211156117ca578384fd5b6117d68a838b016115e4565b909650945060408901359150808211156117ee578384fd5b506117fb89828a016115e4565b979a9699509497509295939492505050565b60006020828403121561181e578081fd5b81518015158114611388578182fd5b60006020828403121561183e578081fd5b815167ffffffffffffffff80821115611855578283fd5b9083019081850360c0811215611869578384fd5b6118736080611a99565b61187c84611743565b81526060601f198301121561188f578485fd5b6118996060611a99565b91506118a760208501611743565b82526118b560408501611743565b60208301526118c660608501611743565b604083015281602082015260808401519150828211156118e4578485fd5b6118f08783860161168f565b604082015260a0939093015160608401525090949350505050565b60006020828403121561191c578081fd5b5035919050565b600060208284031215611934578081fd5b5051919050565b6000806040838503121561194d578182fd5b82359150602083013561195f81611b8b565b809150509250929050565b60008060006060848603121561197e578283fd5b83519250602084015161199081611b8b565b60408501519092506119a181611b8b565b809150509250925092565b600080604083850312156119be578182fd5b50508035926020909101359150565b600081518084526119e5816020860160208601611b18565b601f01601f19169290920160200192915050565b60008251611a0b818460208701611b18565b9190910192915050565b60006020825261138860208301846119cd565b600060808252611a3b60808301876119cd565b6001600160a01b0395861660208401529385166040830152509216606090920191909152919050565b6020808252818101527f4f776e61626c653a2063616c6c6572206973206e6f7420746865206f776e6572604082015260600190565b604051601f8201601f1916810167ffffffffffffffff81118282101715611ac257611ac2611b75565b604052919050565b60008219821115611add57611add611b5f565b500190565b6000816000190483118215151615611afc57611afc611b5f565b500290565b600082821015611b1357611b13611b5f565b500390565b60005b83811015611b33578181015183820152602001611b1b565b8381111561074b5750506000910152565b6000600019821415611b5857611b58611b5f565b5060010190565b634e487b7160e01b600052601160045260246000fd5b634e487b7160e01b600052604160045260246000fd5b6001600160a01b0381168114610b5c57600080fdfea2646970667358221220d79bd94dc63e92860d8088219c8a0baea99d4cf2f5d91b334027a4979eeef1bb64736f6c63430008020033",
  "linkReferences": {},
  "deployedLinkReferences": {}
}