{
  "contractName": "BridgePool",
  "abi": [
    {
      "inputs": [],
      "stateMutability": "nonpayable",
      "type": "constructor"
    },
    {
      "anonymous": false,
      "inputs": [
        {
          "indexed": false,
          "internalType": "address",
          "name": "actor",
          "type": "address"
        },
        {
          "indexed": false,
          "internalType": "address",
          "name": "token",
          "type": "address"
        },
        {
          "indexed": false,
          "internalType": "uint256",
          "name": "amount",
          "type": "uint256"
        }
      ],
      "name": "BridgeLiquidityAdded",
      "type": "event"
    },
    {
      "anonymous": false,
      "inputs": [
        {
          "indexed": false,
          "internalType": "address",
          "name": "actor",
          "type": "address"
        },
        {
          "indexed": false,
          "internalType": "address",
          "name": "token",
          "type": "address"
        },
        {
          "indexed": false,
          "internalType": "uint256",
          "name": "amount",
          "type": "uint256"
        }
      ],
      "name": "BridgeLiquidityRemoved",
      "type": "event"
    },
    {
      "anonymous": false,
      "inputs": [
        {
          "indexed": false,
          "internalType": "address",
          "name": "from",
          "type": "address"
        },
        {
          "indexed": true,
          "internalType": "address",
          "name": "token",
          "type": "address"
        },
        {
          "indexed": false,
          "internalType": "uint256",
          "name": "targetNetwork",
          "type": "uint256"
        },
        {
          "indexed": false,
          "internalType": "address",
          "name": "targetToken",
          "type": "address"
        },
        {
          "indexed": false,
          "internalType": "uint256",
          "name": "amount",
          "type": "uint256"
        },
        {
          "indexed": false,
          "internalType": "uint256",
          "name": "fee",
          "type": "uint256"
        }
      ],
      "name": "BridgeSwap",
      "type": "event"
    },
    {
      "anonymous": false,
      "inputs": [
        {
          "indexed": true,
          "internalType": "address",
          "name": "previousOwner",
          "type": "address"
        },
        {
          "indexed": true,
          "internalType": "address",
          "name": "newOwner",
          "type": "address"
        }
      ],
      "name": "OwnershipTransferred",
      "type": "event"
    },
    {
      "anonymous": false,
      "inputs": [
        {
          "indexed": false,
          "internalType": "bytes32",
          "name": "hash",
          "type": "bytes32"
        },
        {
          "indexed": false,
          "internalType": "address",
          "name": "signer",
          "type": "address"
        },
        {
          "indexed": false,
          "internalType": "address",
          "name": "receiver",
          "type": "address"
        },
        {
          "indexed": false,
          "internalType": "address",
          "name": "token",
          "type": "address"
        },
        {
          "indexed": false,
          "internalType": "uint256",
          "name": "amount",
          "type": "uint256"
        }
      ],
      "name": "TransferBySignature",
      "type": "event"
    },
    {
      "inputs": [],
      "name": "feeDistributor",
      "outputs": [
        {
          "internalType": "address",
          "name": "",
          "type": "address"
        }
      ],
      "stateMutability": "view",
      "type": "function"
    },
    {
      "inputs": [
        {
          "internalType": "address",
          "name": "",
          "type": "address"
        }
      ],
      "name": "fees",
      "outputs": [
        {
          "internalType": "uint256",
          "name": "",
          "type": "uint256"
        }
      ],
      "stateMutability": "view",
      "type": "function"
    },
    {
      "inputs": [],
      "name": "owner",
      "outputs": [
        {
          "internalType": "address",
          "name": "",
          "type": "address"
        }
      ],
      "stateMutability": "view",
      "type": "function"
    },
    {
      "inputs": [],
      "name": "renounceOwnership",
      "outputs": [],
      "stateMutability": "nonpayable",
      "type": "function"
    },
    {
      "inputs": [],
      "name": "signer",
      "outputs": [
        {
          "internalType": "address",
          "name": "",
          "type": "address"
        }
      ],
      "stateMutability": "view",
      "type": "function"
    },
    {
      "inputs": [
        {
          "internalType": "address",
          "name": "newOwner",
          "type": "address"
        }
      ],
      "name": "transferOwnership",
      "outputs": [],
      "stateMutability": "nonpayable",
      "type": "function"
    },
    {
      "inputs": [
        {
          "internalType": "bytes32",
          "name": "",
          "type": "bytes32"
        }
      ],
      "name": "usedHashes",
      "outputs": [
        {
          "internalType": "bool",
          "name": "",
          "type": "bool"
        }
      ],
      "stateMutability": "view",
      "type": "function"
    },
    {
      "inputs": [
        {
          "internalType": "address",
          "name": "_signer",
          "type": "address"
        }
      ],
      "name": "setSigner",
      "outputs": [],
      "stateMutability": "nonpayable",
      "type": "function"
    },
    {
      "inputs": [
        {
          "internalType": "address",
          "name": "token",
          "type": "address"
        },
        {
          "internalType": "uint256",
          "name": "fee100",
          "type": "uint256"
        }
      ],
      "name": "setFee",
      "outputs": [],
      "stateMutability": "nonpayable",
      "type": "function"
    },
    {
      "inputs": [
        {
          "internalType": "address",
          "name": "_feeDistributor",
          "type": "address"
        }
      ],
      "name": "setFeeDistributor",
      "outputs": [],
      "stateMutability": "nonpayable",
      "type": "function"
    },
    {
      "inputs": [
        {
          "internalType": "address",
          "name": "token",
          "type": "address"
        },
        {
          "internalType": "uint256",
          "name": "amount",
          "type": "uint256"
        },
        {
          "internalType": "uint256",
          "name": "targetNetwork",
          "type": "uint256"
        },
        {
          "internalType": "address",
          "name": "targetToken",
          "type": "address"
        }
      ],
      "name": "swap",
      "outputs": [
        {
          "internalType": "uint256",
          "name": "",
          "type": "uint256"
        }
      ],
      "stateMutability": "nonpayable",
      "type": "function"
    },
    {
      "inputs": [
        {
          "internalType": "address",
          "name": "token",
          "type": "address"
        },
        {
          "internalType": "address",
          "name": "payee",
          "type": "address"
        },
        {
          "internalType": "uint256",
          "name": "amount",
          "type": "uint256"
        },
        {
          "internalType": "bytes32",
          "name": "salt",
          "type": "bytes32"
        },
        {
          "internalType": "bytes",
          "name": "signature",
          "type": "bytes"
        }
      ],
      "name": "withdrawSigned",
      "outputs": [],
      "stateMutability": "nonpayable",
      "type": "function"
    },
    {
      "inputs": [
        {
          "internalType": "address",
          "name": "token",
          "type": "address"
        },
        {
          "internalType": "uint256",
          "name": "amount",
          "type": "uint256"
        }
      ],
      "name": "addLiquidity",
      "outputs": [],
      "stateMutability": "nonpayable",
      "type": "function"
    },
    {
      "inputs": [
        {
          "internalType": "address",
          "name": "token",
          "type": "address"
        },
        {
          "internalType": "uint256",
          "name": "amount",
          "type": "uint256"
        }
      ],
      "name": "removeLiquidityIfPossible",
      "outputs": [
        {
          "internalType": "uint256",
          "name": "",
          "type": "uint256"
        }
      ],
      "stateMutability": "nonpayable",
      "type": "function"
    },
    {
      "inputs": [
        {
          "internalType": "address",
          "name": "token",
          "type": "address"
        },
        {
          "internalType": "address",
          "name": "liquidityAdder",
          "type": "address"
        }
      ],
      "name": "liquidity",
      "outputs": [
        {
          "internalType": "uint256",
          "name": "",
          "type": "uint256"
        }
      ],
      "stateMutability": "view",
      "type": "function"
    }
  ],
  "bytecode": "0x61012060405234801561001157600080fd5b50604080518082018252601881527f46455252554d5f544f4b454e5f4252494447455f504f4f4c00000000000000006020808301918252835180850190945260078452663030302e30303160c81b908401528151902060c08190527f216997d4e5731c53bb28f92073a02b69ff283b713a79ae155248b0198261acf960e08190524660a0529192917f8b73c3c69bb8fe3d512ecc4cf759cc79239f7b179b0ffacaa9a75d522b39400f6100c581848461012b565b6080526101005250600092506100dc915050610165565b600080546001600160a01b0319166001600160a01b0383169081178255604051929350917f8be0079c531659141344cd1fd0a4f28419497f9722a3daafe3b4186f6b6457e0908290a350610195565b60008383834630604051602001610146959493929190610169565b6040516020818303038152906040528051906020012090509392505050565b3390565b9485526020850193909352604084019190915260608301526001600160a01b0316608082015260a00190565b60805160a05160c05160e05161010051611aac620001da6000396000610ec201526000610f0401526000610ee301526000610e7001526000610e990152611aac6000f3fe608060405234801561001057600080fd5b50600436106100f55760003560e01c8063aef18bf711610097578063e91b79bc11610066578063e91b79bc146101d1578063f2fde38b146101e4578063f3e6ea8a146101f7578063faaebd211461020a576100f5565b8063aef18bf71461016b578063b22172811461018b578063ccfc2e8d146101ab578063e55156b5146101be576100f5565b80636c19e783116100d35780636c19e78314610135578063715018a6146101485780638d6e9291146101505780638da5cb5b14610163576100f5565b80630d43e8ad146100fa578063238ac933146101185780635668870014610120575b600080fd5b61010261021d565b60405161010f9190611443565b60405180910390f35b61010261022c565b61013361012e366004611333565b61023b565b005b610133610143366004611246565b610329565b6101336103bd565b61013361015e366004611292565b610453565b6101026105e4565b61017e6101793660046113c1565b6105f4565b60405161010f91906114c8565b61019e610199366004611260565b610609565b60405161010f91906119a2565b6101336101b9366004611246565b610634565b6101336101cc366004611333565b6106a2565b61019e6101df366004611333565b610723565b6101336101f2366004611246565b61090b565b61019e61020536600461135c565b6109d8565b61019e610218366004611246565b6109e7565b6005546001600160a01b031681565b6001546001600160a01b031681565b806102615760405162461bcd60e51b81526004016102589061196b565b60405180910390fd5b6001600160a01b0382166102875760405162461bcd60e51b8152600401610258906116af565b610293823330846109f9565b6001600160a01b03831660009081526003602090815260408083203384529091529020549091506102c49082610bad565b6001600160a01b03831660009081526003602090815260408083203380855292529182902092909255517fef3f81f7842dc4087d754ab30e98bb596b7345a806ff6db3c82f0c7d77b749609161031d9185908590611457565b60405180910390a15050565b610331610bc0565b6001600160a01b03166103426105e4565b6001600160a01b0316146103685760405162461bcd60e51b815260040161025890611834565b6001600160a01b03811661038e5760405162461bcd60e51b8152600401610258906117fd565b6001805473ffffffffffffffffffffffffffffffffffffffff19166001600160a01b0392909216919091179055565b6103c5610bc0565b6001600160a01b03166103d66105e4565b6001600160a01b0316146103fc5760405162461bcd60e51b815260040161025890611834565b600080546040516001600160a01b03909116907f8be0079c531659141344cd1fd0a4f28419497f9722a3daafe3b4186f6b6457e0908390a36000805473ffffffffffffffffffffffffffffffffffffffff19169055565b60006104ac7f6d6f797b9499434950e53f78e2aed8d1678b505b5c7938799779b2fd57d1e6d288888888604051602001610491959493929190611501565b60405160208183030381529060405280519060200120610bc4565b60008181526002602052604090205490915060ff16156104de5760405162461bcd60e51b8152600401610258906115e4565b60006105208285858080601f016020809104026020016040519081016040528093929190818152602001838380828437600092019190915250610bdf92505050565b6001549091506001600160a01b038083169116146105505760405162461bcd60e51b815260040161025890611869565b600082815260026020526040902080547fffffffffffffffffffffffffffffffffffffffffffffffffffffffffffffff0016600117905561059b6001600160a01b0389168888610c2a565b7feef9de8facb5a597c8a87355a4975c1aaaeed0d89eb29247ca73a5b89c6e55398282898b8a6040516105d29594939291906114d3565b60405180910390a15050505050505050565b6000546001600160a01b03165b90565b60026020526000908152604090205460ff1681565b6001600160a01b03918216600090815260036020908152604080832093909416825291909152205490565b61063c610bc0565b6001600160a01b031661064d6105e4565b6001600160a01b0316146106735760405162461bcd60e51b815260040161025890611834565b6005805473ffffffffffffffffffffffffffffffffffffffff19166001600160a01b0392909216919091179055565b6106aa610bc0565b6001600160a01b03166106bb6105e4565b6001600160a01b0316146106e15760405162461bcd60e51b815260040161025890611834565b6001600160a01b0382166107075760405162461bcd60e51b8152600401610258906116af565b6001600160a01b03909116600090815260046020526040902055565b6000816107425760405162461bcd60e51b81526004016102589061196b565b6001600160a01b0383166107685760405162461bcd60e51b8152600401610258906116af565b6001600160a01b0383166000908152600360209081526040808320338452909152902054828110156107ac5760405162461bcd60e51b8152600401610258906118d7565b6040517f70a082310000000000000000000000000000000000000000000000000000000081526000906001600160a01b038616906370a08231906107f4903090600401611443565b60206040518083038186803b15801561080c57600080fd5b505afa158015610820573d6000803e3d6000fd5b505050506040513d601f19601f8201168201806040525081019061084491906113d9565b905060008482116108555781610857565b845b6001600160a01b03871660009081526003602090815260408083203384529091529020549091506108889082610cb2565b6001600160a01b03871660009081526003602090815260408083203384529091529020558015610902576108c66001600160a01b0387163383610c2a565b7f5204091f3aba3d16dbb7fcc090386ce24245ac12f57ae5bf9785e0ab9a79be733387876040516108f993929190611457565b60405180910390a15b95945050505050565b610913610bc0565b6001600160a01b03166109246105e4565b6001600160a01b03161461094a5760405162461bcd60e51b815260040161025890611834565b6001600160a01b0381166109705760405162461bcd60e51b815260040161025890611652565b600080546040516001600160a01b03808516939216917f8be0079c531659141344cd1fd0a4f28419497f9722a3daafe3b4186f6b6457e091a36000805473ffffffffffffffffffffffffffffffffffffffff19166001600160a01b0392909216919091179055565b60006109023386868686610cbe565b60046020526000908152604090205481565b600080856001600160a01b03166370a08231856040518263ffffffff1660e01b8152600401610a289190611443565b60206040518083038186803b158015610a4057600080fd5b505afa158015610a54573d6000803e3d6000fd5b505050506040513d601f19601f82011682018060405250810190610a7891906113d9565b6040516323b872dd60e01b81529091506001600160a01b038716906323b872dd90610aab90889088908890600401611457565b602060405180830381600087803b158015610ac557600080fd5b505af1158015610ad9573d6000803e3d6000fd5b505050506040513d601f19601f82011682018060405250810190610afd91906113a1565b506040517f70a082310000000000000000000000000000000000000000000000000000000081526000906001600160a01b038816906370a0823190610b46908890600401611443565b60206040518083038186803b158015610b5e57600080fd5b505afa158015610b72573d6000803e3d6000fd5b505050506040513d601f19601f82011682018060405250810190610b9691906113d9565b9050610ba28183610cb2565b979650505050505050565b6000610bb982846119ab565b9392505050565b3390565b6000610bd7610bd1610e6c565b83610f2f565b90505b919050565b60008151604114610c025760405162461bcd60e51b81526004016102589061161b565b60208201516040830151606084015160001a610c2086828585610f62565b9695505050505050565b610cad8363a9059cbb60e01b8484604051602401610c4992919061147b565b60408051601f198184030181529190526020810180517bffffffffffffffffffffffffffffffffffffffffffffffffffffffff167fffffffff000000000000000000000000000000000000000000000000000000009093169290921790915261104f565b505050565b6000610bb98284611a00565b600554600090849082906001600160a01b03168015610d93576001600160a01b038816600090815260046020526040902054610cfb9088906110de565b9150610d078783610cb2565b92508115610d93576040516323b872dd60e01b81526001600160a01b038916906323b872dd90610d3f908c9085908790600401611457565b602060405180830381600087803b158015610d5957600080fd5b505af1158015610d6d573d6000803e3d6000fd5b505050506040513d601f19601f82011682018060405250810190610d9191906113a1565b505b6040516323b872dd60e01b81526001600160a01b038916906323b872dd90610dc3908c9030908790600401611457565b602060405180830381600087803b158015610ddd57600080fd5b505af1158015610df1573d6000803e3d6000fd5b505050506040513d601f19601f82011682018060405250810190610e1591906113a1565b50876001600160a01b03167fcb5ba929f917a7a675164afe75b980c00dca36a9008297ddbeb6f2d7ad8bda088a88888787604051610e57959493929190611494565b60405180910390a25090979650505050505050565b60007f0000000000000000000000000000000000000000000000000000000000000000461415610ebd57507f00000000000000000000000000000000000000000000000000000000000000006105f1565b610f287f00000000000000000000000000000000000000000000000000000000000000007f00000000000000000000000000000000000000000000000000000000000000007f00000000000000000000000000000000000000000000000000000000000000006110ea565b90506105f1565b60008282604051602001610f4492919061140d565b60405160208183030381529060405280519060200120905092915050565b60007f7fffffffffffffffffffffffffffffff5d576e7357a4501ddfe92f46681b20a0821115610fa45760405162461bcd60e51b8152600401610258906116e6565b8360ff16601b1480610fb957508360ff16601c145b610fd55760405162461bcd60e51b8152600401610258906117a0565b600060018686868660405160008152602001604052604051610ffa949392919061155c565b6020604051602081039080840390855afa15801561101c573d6000803e3d6000fd5b5050604051601f1901519150506001600160a01b0381166109025760405162461bcd60e51b8152600401610258906115ad565b60006110a4826040518060400160405280602081526020017f5361666545524332303a206c6f772d6c6576656c2063616c6c206661696c6564815250856001600160a01b03166111249092919063ffffffff16565b805190915015610cad57808060200190518101906110c291906113a1565b610cad5760405162461bcd60e51b81526004016102589061190e565b6000610bb982846119c3565b60008383834630604051602001611105959493929190611530565b6040516020818303038152906040528051906020012090509392505050565b6060611133848460008561113b565b949350505050565b60608247101561115d5760405162461bcd60e51b815260040161025890611743565b611166856111f0565b6111825760405162461bcd60e51b8152600401610258906118a0565b600080866001600160a01b0316858760405161119e91906113f1565b60006040518083038185875af1925050503d80600081146111db576040519150601f19603f3d011682016040523d82523d6000602084013e6111e0565b606091505b5091509150610ba28282866111f6565b3b151590565b60608315611205575081610bb9565b8251156112155782518084602001fd5b8160405162461bcd60e51b8152600401610258919061157a565b80356001600160a01b0381168114610bda57600080fd5b600060208284031215611257578081fd5b610bb98261122f565b60008060408385031215611272578081fd5b61127b8361122f565b91506112896020840161122f565b90509250929050565b60008060008060008060a087890312156112aa578182fd5b6112b38761122f565b95506112c16020880161122f565b94506040870135935060608701359250608087013567ffffffffffffffff808211156112eb578384fd5b818901915089601f8301126112fe578384fd5b81358181111561130c578485fd5b8a602082850101111561131d578485fd5b6020830194508093505050509295509295509295565b60008060408385031215611345578182fd5b61134e8361122f565b946020939093013593505050565b60008060008060808587031215611371578384fd5b61137a8561122f565b935060208501359250604085013591506113966060860161122f565b905092959194509250565b6000602082840312156113b2578081fd5b81518015158114610bb9578182fd5b6000602082840312156113d2578081fd5b5035919050565b6000602082840312156113ea578081fd5b5051919050565b60008251611403818460208701611a17565b9190910192915050565b7f190100000000000000000000000000000000000000000000000000000000000081526002810192909252602282015260420190565b6001600160a01b0391909116815260200190565b6001600160a01b039384168152919092166020820152604081019190915260600190565b6001600160a01b03929092168252602082015260400190565b6001600160a01b03958616815260208101949094529190931660408301526060820192909252608081019190915260a00190565b901515815260200190565b9485526001600160a01b03938416602086015291831660408501529091166060830152608082015260a00190565b9485526001600160a01b0393841660208601529190921660408401526060830191909152608082015260a00190565b9485526020850193909352604084019190915260608301526001600160a01b0316608082015260a00190565b93845260ff9290921660208401526040830152606082015260800190565b6000602082528251806020840152611599816040850160208701611a17565b601f01601f19169190910160400192915050565b60208082526018908201527f45434453413a20696e76616c6964207369676e61747572650000000000000000604082015260600190565b60208082526014908201527f4d65737361676520616c72656164792075736564000000000000000000000000604082015260600190565b6020808252601f908201527f45434453413a20696e76616c6964207369676e6174757265206c656e67746800604082015260600190565b60208082526026908201527f4f776e61626c653a206e6577206f776e657220697320746865207a65726f206160408201527f6464726573730000000000000000000000000000000000000000000000000000606082015260800190565b60208082526009908201527f42616420746f6b656e0000000000000000000000000000000000000000000000604082015260600190565b60208082526022908201527f45434453413a20696e76616c6964207369676e6174757265202773272076616c60408201527f7565000000000000000000000000000000000000000000000000000000000000606082015260800190565b60208082526026908201527f416464726573733a20696e73756666696369656e742062616c616e636520666f60408201527f722063616c6c0000000000000000000000000000000000000000000000000000606082015260800190565b60208082526022908201527f45434453413a20696e76616c6964207369676e6174757265202776272076616c60408201527f7565000000000000000000000000000000000000000000000000000000000000606082015260800190565b6020808252600a908201527f426164207369676e657200000000000000000000000000000000000000000000604082015260600190565b6020808252818101527f4f776e61626c653a2063616c6c6572206973206e6f7420746865206f776e6572604082015260600190565b6020808252601a908201527f427269646765506f6f6c3a20496e76616c6964207369676e6572000000000000604082015260600190565b6020808252601d908201527f416464726573733a2063616c6c20746f206e6f6e2d636f6e7472616374000000604082015260600190565b60208082526014908201527f4e6f7420656e6f756768206c6971756964697479000000000000000000000000604082015260600190565b6020808252602a908201527f5361666545524332303a204552433230206f7065726174696f6e20646964206e60408201527f6f74207375636365656400000000000000000000000000000000000000000000606082015260800190565b60208082526017908201527f416d6f756e74206d75737420626520706f736974697665000000000000000000604082015260600190565b90815260200190565b600082198211156119be576119be611a47565b500190565b6000817fffffffffffffffffffffffffffffffffffffffffffffffffffffffffffffffff04831182151516156119fb576119fb611a47565b500290565b600082821015611a1257611a12611a47565b500390565b60005b83811015611a32578181015183820152602001611a1a565b83811115611a41576000848401525b50505050565b7f4e487b7100000000000000000000000000000000000000000000000000000000600052601160045260246000fdfea26469706673582212205581c1721fb9ce5a51d16a4469a87aeedc33f37c90c661c3d82163e132bc24fd64736f6c63430008000033",
  "immutableReferences": {
    "6587": [
      {
        "length": 32,
        "start": 3737
      }
    ],
    "6589": [
      {
        "length": 32,
        "start": 3696
      }
    ],
    "6591": [
      {
        "length": 32,
        "start": 3811
      }
    ],
    "6593": [
      {
        "length": 32,
        "start": 3844
      }
    ],
    "6595": [
      {
        "length": 32,
        "start": 3778
      }
    ]
  },
  "source": "// SPDX-License-Identifier: MIT\n\npragma solidity >=0.6.0 <=0.8.0;\n\nimport \"@openzeppelin/contracts/utils/cryptography/draft-EIP712.sol\";\nimport \"@openzeppelin/contracts/utils/cryptography/ECDSA.sol\";\nimport \"@openzeppelin/contracts/access/Ownable.sol\";\nimport \"@openzeppelin/contracts/token/ERC20/utils/SafeERC20.sol\";\nimport \"../common/SafeAmount.sol\";\nimport \"../token/TaxDistributor.sol\";\n\ncontract BridgePool is EIP712, Ownable {\n    using SafeMath for uint256;\n    using SafeERC20 for IERC20;\n    event TransferBySignature(bytes32 hash, address signer, address receiver, address token, uint256 amount);\n    event BridgeLiquidityAdded(address actor, address token, uint256 amount);\n    event BridgeLiquidityRemoved(address actor, address token, uint256 amount);\n    event BridgeSwap(address from,\n        address indexed token, uint256 targetNetwork, address targetToken,\n        uint256 amount, uint256 fee);\n\n    string constant NAME = \"FERRUM_TOKEN_BRIDGE_POOL\";\n    string constant VERSION = \"000.001\";\n    address public signer;\n    mapping(bytes32=>bool) public usedHashes;\n    mapping(address=>mapping(address=>uint256)) private liquidities;\n    mapping(address=>uint256) public fees;\n    address public feeDistributor;\n\n    constructor () EIP712(NAME, VERSION) { }\n\n    function setSigner(address _signer) external onlyOwner() {\n        require(_signer != address(0), \"Bad signer\");\n        signer = _signer;\n    }\n\n    function setFee(address token, uint256 fee100) external onlyOwner() {\n        require(token != address(0), \"Bad token\");\n        fees[token] = fee100;\n    }\n\n    function setFeeDistributor(address _feeDistributor) external onlyOwner() {\n        feeDistributor = _feeDistributor;\n    }\n\n    function _swap(address from, address token, uint256 amount, uint256 targetNetwork,\n        address targetToken) internal returns(uint256) {\n        uint256 actualAmount = amount;\n        uint256 fee = 0;\n        address _feeDistributor = feeDistributor;\n        if (_feeDistributor != address(0)) {\n            fee = amount.mul(fees[token]);\n            actualAmount = amount.sub(fee);\n            if (fee != 0) {\n                IERC20(token).transferFrom(from, _feeDistributor, fee);\n            }\n        }\n        IERC20(token).transferFrom(from, address(this), fee);\n        emit BridgeSwap(from, token, targetNetwork, targetToken, actualAmount, fee);\n        return actualAmount;\n    }\n\n    function swap(address token, uint256 amount, uint256 targetNetwork, address targetToken) external returns(uint256) {\n        return _swap(msg.sender, token, amount, targetNetwork, targetToken);\n    }\n\n    function withdrawSigned(\n            address token,\n            address payee,\n            uint256 amount,\n            bytes32 salt,\n            bytes calldata signature) external {\n        bytes32 digest = _hashTypedDataV4(keccak256(abi.encode(\n          keccak256(\"WithdrawSigned(address token, address payee,uint256 amount,bytes32 salt)\"),\n          token,\n          payee,\n          amount,\n          salt\n        )));\n        require(!usedHashes[digest], \"Message already used\");\n        address _signer = ECDSA.recover(digest, signature);\n        require(_signer == signer, \"BridgePool: Invalid signer\");\n        usedHashes[digest] = true;\n        IERC20(token).safeTransfer(payee, amount);\n        emit TransferBySignature(digest, _signer, payee, token, amount);\n    }\n\n    function addLiquidity(address token, uint256 amount) public {\n        require(amount != 0, \"Amount must be positive\");\n        require(token != address(0), \"Bad token\");\n        amount = SafeAmount.safeTransferFrom(token, msg.sender, address(this), amount);\n        liquidities[token][msg.sender] = liquidities[token][msg.sender].add(amount);\n        emit BridgeLiquidityAdded(msg.sender, token, amount);\n    }\n\n    function removeLiquidityIfPossible(address token, uint256 amount) public returns (uint256) {\n        require(amount != 0, \"Amount must be positive\");\n        require(token != address(0), \"Bad token\");\n        uint256 liq = liquidities[token][msg.sender];\n        require(liq >= amount, \"Not enough liquidity\");\n        uint256 balance = IERC20(token).balanceOf(address(this));\n        uint256 actualLiq = balance > amount ? amount : balance;\n        liquidities[token][msg.sender] = liquidities[token][msg.sender].sub(actualLiq);\n        if (actualLiq != 0) {\n            IERC20(token).safeTransfer(msg.sender, actualLiq);\n            emit BridgeLiquidityRemoved(msg.sender, token, amount);\n        }\n        return actualLiq;\n    }\n\n    function liquidity(address token, address liquidityAdder) public view returns (uint256) {\n        return liquidities[token][liquidityAdder];\n    }\n}",
  "sourcePath": "/home/naiemk/nk/open-staking/contracts/bridge/BridgePool.sol",
  "compiler": {
    "name": "solc",
    "version": "0.8.0+commit.c7dfd78e.Emscripten.clang"
  },
  "schemaVersion": "3.3.4",
  "updatedAt": "2021-04-09T22:55:24.139Z",
  "devdoc": {
    "kind": "dev",
    "methods": {
      "owner()": {
        "details": "Returns the address of the current owner."
      },
      "renounceOwnership()": {
        "details": "Leaves the contract without owner. It will not be possible to call `onlyOwner` functions anymore. Can only be called by the current owner. NOTE: Renouncing ownership will leave the contract without an owner, thereby removing any functionality that is only available to the owner."
      },
      "transferOwnership(address)": {
        "details": "Transfers ownership of the contract to a new account (`newOwner`). Can only be called by the current owner."
      }
    },
    "version": 1
  },
  "userdoc": {
    "kind": "user",
    "methods": {},
    "version": 1
  }
}